{
  "_format": "hh-sol-artifact-1",
  "contractName": "BadgerToken",
  "sourceName": "contracts/BadgerToken.sol",
  "abi": [
    {
      "inputs": [],
      "stateMutability": "nonpayable",
      "type": "constructor"
    },
    {
      "anonymous": false,
      "inputs": [
        {
          "indexed": true,
          "internalType": "address",
          "name": "tokenOwner",
          "type": "address"
        },
        {
          "indexed": true,
          "internalType": "address",
          "name": "spender",
          "type": "address"
        },
        {
          "indexed": false,
          "internalType": "uint256",
          "name": "tokens",
          "type": "uint256"
        }
      ],
      "name": "Approval",
      "type": "event"
    },
    {
      "anonymous": false,
      "inputs": [
        {
          "indexed": true,
          "internalType": "address",
          "name": "from",
          "type": "address"
        },
        {
          "indexed": true,
          "internalType": "address",
          "name": "to",
          "type": "address"
        },
        {
          "indexed": false,
          "internalType": "uint256",
          "name": "tokens",
          "type": "uint256"
        }
      ],
      "name": "Transfer",
      "type": "event"
    },
    {
      "inputs": [],
      "name": "_totalSupply",
      "outputs": [
        {
          "internalType": "uint256",
          "name": "",
          "type": "uint256"
        }
      ],
      "stateMutability": "view",
      "type": "function"
    },
    {
      "inputs": [
        {
          "internalType": "address",
          "name": "tokenOwner",
          "type": "address"
        },
        {
          "internalType": "address",
          "name": "spender",
          "type": "address"
        }
      ],
      "name": "allowance",
      "outputs": [
        {
          "internalType": "uint256",
          "name": "remaining",
          "type": "uint256"
        }
      ],
      "stateMutability": "view",
      "type": "function"
    },
    {
      "inputs": [
        {
          "internalType": "address",
          "name": "spender",
          "type": "address"
        },
        {
          "internalType": "uint256",
          "name": "tokens",
          "type": "uint256"
        }
      ],
      "name": "approve",
      "outputs": [
        {
          "internalType": "bool",
          "name": "success",
          "type": "bool"
        }
      ],
      "stateMutability": "nonpayable",
      "type": "function"
    },
    {
      "inputs": [
        {
          "internalType": "address",
          "name": "tokenOwner",
          "type": "address"
        }
      ],
      "name": "balanceOf",
      "outputs": [
        {
          "internalType": "uint256",
          "name": "balance",
          "type": "uint256"
        }
      ],
      "stateMutability": "view",
      "type": "function"
    },
    {
      "inputs": [
        {
          "internalType": "address[]",
          "name": "addresses",
          "type": "address[]"
        },
        {
          "internalType": "uint256",
          "name": "tokensEach",
          "type": "uint256"
        }
      ],
      "name": "bulkTransfer",
      "outputs": [
        {
          "internalType": "bool",
          "name": "success",
          "type": "bool"
        }
      ],
      "stateMutability": "nonpayable",
      "type": "function"
    },
    {
      "inputs": [],
      "name": "decimals",
      "outputs": [
        {
          "internalType": "uint8",
          "name": "",
          "type": "uint8"
        }
      ],
      "stateMutability": "view",
      "type": "function"
    },
    {
      "inputs": [],
      "name": "name",
      "outputs": [
        {
          "internalType": "string",
          "name": "",
          "type": "string"
        }
      ],
      "stateMutability": "view",
      "type": "function"
    },
    {
      "inputs": [
        {
          "internalType": "uint256",
          "name": "a",
          "type": "uint256"
        },
        {
          "internalType": "uint256",
          "name": "b",
          "type": "uint256"
        }
      ],
      "name": "safeAdd",
      "outputs": [
        {
          "internalType": "uint256",
          "name": "c",
          "type": "uint256"
        }
      ],
      "stateMutability": "pure",
      "type": "function"
    },
    {
      "inputs": [
        {
          "internalType": "uint256",
          "name": "a",
          "type": "uint256"
        },
        {
          "internalType": "uint256",
          "name": "b",
          "type": "uint256"
        }
      ],
      "name": "safeDiv",
      "outputs": [
        {
          "internalType": "uint256",
          "name": "c",
          "type": "uint256"
        }
      ],
      "stateMutability": "pure",
      "type": "function"
    },
    {
      "inputs": [
        {
          "internalType": "uint256",
          "name": "a",
          "type": "uint256"
        },
        {
          "internalType": "uint256",
          "name": "b",
          "type": "uint256"
        }
      ],
      "name": "safeMul",
      "outputs": [
        {
          "internalType": "uint256",
          "name": "c",
          "type": "uint256"
        }
      ],
      "stateMutability": "pure",
      "type": "function"
    },
    {
      "inputs": [
        {
          "internalType": "uint256",
          "name": "a",
          "type": "uint256"
        },
        {
          "internalType": "uint256",
          "name": "b",
          "type": "uint256"
        }
      ],
      "name": "safeSub",
      "outputs": [
        {
          "internalType": "uint256",
          "name": "c",
          "type": "uint256"
        }
      ],
      "stateMutability": "pure",
      "type": "function"
    },
    {
      "inputs": [],
      "name": "symbol",
      "outputs": [
        {
          "internalType": "string",
          "name": "",
          "type": "string"
        }
      ],
      "stateMutability": "view",
      "type": "function"
    },
    {
      "inputs": [],
      "name": "totalSupply",
      "outputs": [
        {
          "internalType": "uint256",
          "name": "",
          "type": "uint256"
        }
      ],
      "stateMutability": "view",
      "type": "function"
    },
    {
      "inputs": [
        {
          "internalType": "address",
          "name": "to",
          "type": "address"
        },
        {
          "internalType": "uint256",
          "name": "tokens",
          "type": "uint256"
        }
      ],
      "name": "transfer",
      "outputs": [
        {
          "internalType": "bool",
          "name": "success",
          "type": "bool"
        }
      ],
      "stateMutability": "nonpayable",
      "type": "function"
    },
    {
      "inputs": [
        {
          "internalType": "address",
          "name": "from",
          "type": "address"
        },
        {
          "internalType": "address",
          "name": "to",
          "type": "address"
        },
        {
          "internalType": "uint256",
          "name": "tokens",
          "type": "uint256"
        }
      ],
      "name": "transferFrom",
      "outputs": [
        {
          "internalType": "bool",
          "name": "success",
          "type": "bool"
        }
      ],
      "stateMutability": "nonpayable",
      "type": "function"
    }
  ],
  "bytecode": "0x60806040523480156200001157600080fd5b506040518060400160405280600b81526020017f426164676572546f6b656e000000000000000000000000000000000000000000815250600090805190602001906200005f92919062000192565b506040518060400160405280600281526020017f425400000000000000000000000000000000000000000000000000000000000081525060019080519060200190620000ad92919062000192565b506012600260006101000a81548160ff021916908360ff1602179055506a52b7d2dcc80cd2e4000000600381905550600354600460003373ffffffffffffffffffffffffffffffffffffffff1673ffffffffffffffffffffffffffffffffffffffff168152602001908152602001600020819055503373ffffffffffffffffffffffffffffffffffffffff16600073ffffffffffffffffffffffffffffffffffffffff167fddf252ad1be2c89b69c2b068fc378daa952ba7f163c4a11628f55a4df523b3ef60035460405162000184919062000253565b60405180910390a3620002df565b828054620001a0906200027a565b90600052602060002090601f016020900481019282620001c4576000855562000210565b82601f10620001df57805160ff191683800117855562000210565b8280016001018555821562000210579182015b828111156200020f578251825591602001919060010190620001f2565b5b5090506200021f919062000223565b5090565b5b808211156200023e57600081600090555060010162000224565b5090565b6200024d8162000270565b82525050565b60006020820190506200026a600083018462000242565b92915050565b6000819050919050565b600060028204905060018216806200029357607f821691505b60208210811415620002aa57620002a9620002b0565b5b50919050565b7f4e487b7100000000000000000000000000000000000000000000000000000000600052602260045260246000fd5b6114e980620002ef6000396000f3fe608060405234801561001057600080fd5b50600436106100f55760003560e01c806370a0823111610097578063b5931f7c11610066578063b5931f7c146102b0578063d05c78da146102e0578063dd62ed3e14610310578063e6cb901314610340576100f5565b806370a082311461020257806395d89b4114610232578063a293d1e814610250578063a9059cbb14610280576100f5565b806323b872dd116100d357806323b872dd14610166578063313ce567146101965780633eaaf86b146101b45780634ca64b3a146101d2576100f5565b806306fdde03146100fa578063095ea7b31461011857806318160ddd14610148575b600080fd5b610102610370565b60405161010f91906110aa565b60405180910390f35b610132600480360381019061012d9190610f5d565b6103fe565b60405161013f919061108f565b60405180910390f35b6101506104f0565b60405161015d91906110cc565b60405180910390f35b610180600480360381019061017b9190610f0e565b610544565b60405161018d919061108f565b60405180910390f35b61019e6107d4565b6040516101ab91906110e7565b60405180910390f35b6101bc6107e7565b6040516101c991906110cc565b60405180910390f35b6101ec60048036038101906101e79190610f99565b6107ed565b6040516101f9919061108f565b60405180910390f35b61021c60048036038101906102179190610ea9565b610a62565b60405161022991906110cc565b60405180910390f35b61023a610aab565b60405161024791906110aa565b60405180910390f35b61026a60048036038101906102659190610fed565b610b39565b60405161027791906110cc565b60405180910390f35b61029a60048036038101906102959190610f5d565b610b5c565b6040516102a7919061108f565b60405180910390f35b6102ca60048036038101906102c59190610fed565b610ce5565b6040516102d791906110cc565b60405180910390f35b6102fa60048036038101906102f59190610fed565b610d07565b60405161030791906110cc565b60405180910390f35b61032a60048036038101906103259190610ed2565b610d3f565b60405161033791906110cc565b60405180910390f35b61035a60048036038101906103559190610fed565b610dc6565b60405161036791906110cc565b60405180910390f35b6000805461037d9061130c565b80601f01602080910402602001604051908101604052809291908181526020018280546103a99061130c565b80156103f65780601f106103cb576101008083540402835291602001916103f6565b820191906000526020600020905b8154815290600101906020018083116103d957829003601f168201915b505050505081565b600081600560003373ffffffffffffffffffffffffffffffffffffffff1673ffffffffffffffffffffffffffffffffffffffff16815260200190815260200160002060008573ffffffffffffffffffffffffffffffffffffffff1673ffffffffffffffffffffffffffffffffffffffff168152602001908152602001600020819055508273ffffffffffffffffffffffffffffffffffffffff163373ffffffffffffffffffffffffffffffffffffffff167f8c5be1e5ebec7d5bd14f71427d1e84f3dd0314c0f7b2291e5b200ac8c7c3b925846040516104de91906110cc565b60405180910390a36001905092915050565b6000600460008073ffffffffffffffffffffffffffffffffffffffff1673ffffffffffffffffffffffffffffffffffffffff1681526020019081526020016000205460035461053f9190611250565b905090565b600061058f600460008673ffffffffffffffffffffffffffffffffffffffff1673ffffffffffffffffffffffffffffffffffffffff1681526020019081526020016000205483610b39565b600460008673ffffffffffffffffffffffffffffffffffffffff1673ffffffffffffffffffffffffffffffffffffffff16815260200190815260200160002081905550610658600560008673ffffffffffffffffffffffffffffffffffffffff1673ffffffffffffffffffffffffffffffffffffffff16815260200190815260200160002060003373ffffffffffffffffffffffffffffffffffffffff1673ffffffffffffffffffffffffffffffffffffffff1681526020019081526020016000205483610b39565b600560008673ffffffffffffffffffffffffffffffffffffffff1673ffffffffffffffffffffffffffffffffffffffff16815260200190815260200160002060003373ffffffffffffffffffffffffffffffffffffffff1673ffffffffffffffffffffffffffffffffffffffff16815260200190815260200160002081905550610721600460008573ffffffffffffffffffffffffffffffffffffffff1673ffffffffffffffffffffffffffffffffffffffff1681526020019081526020016000205483610dc6565b600460008573ffffffffffffffffffffffffffffffffffffffff1673ffffffffffffffffffffffffffffffffffffffff168152602001908152602001600020819055508273ffffffffffffffffffffffffffffffffffffffff168473ffffffffffffffffffffffffffffffffffffffff167fddf252ad1be2c89b69c2b068fc378daa952ba7f163c4a11628f55a4df523b3ef846040516107c191906110cc565b60405180910390a3600190509392505050565b600260009054906101000a900460ff1681565b60035481565b6000610844600460003373ffffffffffffffffffffffffffffffffffffffff1673ffffffffffffffffffffffffffffffffffffffff1681526020019081526020016000205484518461083f91906111f6565b610b39565b600460003373ffffffffffffffffffffffffffffffffffffffff1673ffffffffffffffffffffffffffffffffffffffff1681526020019081526020016000208190555060005b8351811015610a575761091c600460008684815181106108d3577f4e487b7100000000000000000000000000000000000000000000000000000000600052603260045260246000fd5b602002602001015173ffffffffffffffffffffffffffffffffffffffff1673ffffffffffffffffffffffffffffffffffffffff1681526020019081526020016000205484610dc6565b60046000868481518110610959577f4e487b7100000000000000000000000000000000000000000000000000000000600052603260045260246000fd5b602002602001015173ffffffffffffffffffffffffffffffffffffffff1673ffffffffffffffffffffffffffffffffffffffff168152602001908152602001600020819055508381815181106109d8577f4e487b7100000000000000000000000000000000000000000000000000000000600052603260045260246000fd5b602002602001015173ffffffffffffffffffffffffffffffffffffffff163373ffffffffffffffffffffffffffffffffffffffff167fddf252ad1be2c89b69c2b068fc378daa952ba7f163c4a11628f55a4df523b3ef85604051610a3c91906110cc565b60405180910390a38080610a4f9061136f565b91505061088a565b506001905092915050565b6000600460008373ffffffffffffffffffffffffffffffffffffffff1673ffffffffffffffffffffffffffffffffffffffff168152602001908152602001600020549050919050565b60018054610ab89061130c565b80601f0160208091040260200160405190810160405280929190818152602001828054610ae49061130c565b8015610b315780601f10610b0657610100808354040283529160200191610b31565b820191906000526020600020905b815481529060010190602001808311610b1457829003601f168201915b505050505081565b600082821115610b4857600080fd5b8183610b549190611250565b905092915050565b6000610ba7600460003373ffffffffffffffffffffffffffffffffffffffff1673ffffffffffffffffffffffffffffffffffffffff1681526020019081526020016000205483610b39565b600460003373ffffffffffffffffffffffffffffffffffffffff1673ffffffffffffffffffffffffffffffffffffffff16815260200190815260200160002081905550610c33600460008573ffffffffffffffffffffffffffffffffffffffff1673ffffffffffffffffffffffffffffffffffffffff1681526020019081526020016000205483610dc6565b600460008573ffffffffffffffffffffffffffffffffffffffff1673ffffffffffffffffffffffffffffffffffffffff168152602001908152602001600020819055508273ffffffffffffffffffffffffffffffffffffffff163373ffffffffffffffffffffffffffffffffffffffff167fddf252ad1be2c89b69c2b068fc378daa952ba7f163c4a11628f55a4df523b3ef84604051610cd391906110cc565b60405180910390a36001905092915050565b6000808211610cf357600080fd5b8183610cff91906111c5565b905092915050565b60008183610d1591906111f6565b90506000831480610d305750818382610d2e91906111c5565b145b610d3957600080fd5b92915050565b6000600560008473ffffffffffffffffffffffffffffffffffffffff1673ffffffffffffffffffffffffffffffffffffffff16815260200190815260200160002060008373ffffffffffffffffffffffffffffffffffffffff1673ffffffffffffffffffffffffffffffffffffffff16815260200190815260200160002054905092915050565b60008183610dd4919061116f565b905082811015610de357600080fd5b92915050565b6000610dfc610df784611127565b611102565b90508083825260208201905082856020860282011115610e1b57600080fd5b60005b85811015610e4b5781610e318882610e55565b845260208401935060208301925050600181019050610e1e565b5050509392505050565b600081359050610e6481611485565b92915050565b600082601f830112610e7b57600080fd5b8135610e8b848260208601610de9565b91505092915050565b600081359050610ea38161149c565b92915050565b600060208284031215610ebb57600080fd5b6000610ec984828501610e55565b91505092915050565b60008060408385031215610ee557600080fd5b6000610ef385828601610e55565b9250506020610f0485828601610e55565b9150509250929050565b600080600060608486031215610f2357600080fd5b6000610f3186828701610e55565b9350506020610f4286828701610e55565b9250506040610f5386828701610e94565b9150509250925092565b60008060408385031215610f7057600080fd5b6000610f7e85828601610e55565b9250506020610f8f85828601610e94565b9150509250929050565b60008060408385031215610fac57600080fd5b600083013567ffffffffffffffff811115610fc657600080fd5b610fd285828601610e6a565b9250506020610fe385828601610e94565b9150509250929050565b6000806040838503121561100057600080fd5b600061100e85828601610e94565b925050602061101f85828601610e94565b9150509250929050565b61103281611296565b82525050565b600061104382611153565b61104d818561115e565b935061105d8185602086016112d9565b61106681611474565b840191505092915050565b61107a816112c2565b82525050565b611089816112cc565b82525050565b60006020820190506110a46000830184611029565b92915050565b600060208201905081810360008301526110c48184611038565b905092915050565b60006020820190506110e16000830184611071565b92915050565b60006020820190506110fc6000830184611080565b92915050565b600061110c61111d565b9050611118828261133e565b919050565b6000604051905090565b600067ffffffffffffffff82111561114257611141611445565b5b602082029050602081019050919050565b600081519050919050565b600082825260208201905092915050565b600061117a826112c2565b9150611185836112c2565b9250827fffffffffffffffffffffffffffffffffffffffffffffffffffffffffffffffff038211156111ba576111b96113b8565b5b828201905092915050565b60006111d0826112c2565b91506111db836112c2565b9250826111eb576111ea6113e7565b5b828204905092915050565b6000611201826112c2565b915061120c836112c2565b9250817fffffffffffffffffffffffffffffffffffffffffffffffffffffffffffffffff0483118215151615611245576112446113b8565b5b828202905092915050565b600061125b826112c2565b9150611266836112c2565b925082821015611279576112786113b8565b5b828203905092915050565b600061128f826112a2565b9050919050565b60008115159050919050565b600073ffffffffffffffffffffffffffffffffffffffff82169050919050565b6000819050919050565b600060ff82169050919050565b60005b838110156112f75780820151818401526020810190506112dc565b83811115611306576000848401525b50505050565b6000600282049050600182168061132457607f821691505b6020821081141561133857611337611416565b5b50919050565b61134782611474565b810181811067ffffffffffffffff8211171561136657611365611445565b5b80604052505050565b600061137a826112c2565b91507fffffffffffffffffffffffffffffffffffffffffffffffffffffffffffffffff8214156113ad576113ac6113b8565b5b600182019050919050565b7f4e487b7100000000000000000000000000000000000000000000000000000000600052601160045260246000fd5b7f4e487b7100000000000000000000000000000000000000000000000000000000600052601260045260246000fd5b7f4e487b7100000000000000000000000000000000000000000000000000000000600052602260045260246000fd5b7f4e487b7100000000000000000000000000000000000000000000000000000000600052604160045260246000fd5b6000601f19601f8301169050919050565b61148e81611284565b811461149957600080fd5b50565b6114a5816112c2565b81146114b057600080fd5b5056fea26469706673582212202d89e6542f1569b2655cd9ec968750c4061241494bb03a7abd76dd3819502fa064736f6c63430008030033",
  "linkReferences": {},
  "deployedLinkReferences": {}
}