{
  "_format": "hh-sol-artifact-1",
  "contractName": "SafeMath",
  "sourceName": "contracts/BadgeToken.sol",
  "abi": [
    {
      "inputs": [
        {
          "internalType": "uint256",
          "name": "a",
          "type": "uint256"
        },
        {
          "internalType": "uint256",
          "name": "b",
          "type": "uint256"
        }
      ],
      "name": "safeAdd",
      "outputs": [
        {
          "internalType": "uint256",
          "name": "c",
          "type": "uint256"
        }
      ],
      "stateMutability": "pure",
      "type": "function"
    },
    {
      "inputs": [
        {
          "internalType": "uint256",
          "name": "a",
          "type": "uint256"
        },
        {
          "internalType": "uint256",
          "name": "b",
          "type": "uint256"
        }
      ],
      "name": "safeDiv",
      "outputs": [
        {
          "internalType": "uint256",
          "name": "c",
          "type": "uint256"
        }
      ],
      "stateMutability": "pure",
      "type": "function"
    },
    {
      "inputs": [
        {
          "internalType": "uint256",
          "name": "a",
          "type": "uint256"
        },
        {
          "internalType": "uint256",
          "name": "b",
          "type": "uint256"
        }
      ],
      "name": "safeMul",
      "outputs": [
        {
          "internalType": "uint256",
          "name": "c",
          "type": "uint256"
        }
      ],
      "stateMutability": "pure",
      "type": "function"
    },
    {
      "inputs": [
        {
          "internalType": "uint256",
          "name": "a",
          "type": "uint256"
        },
        {
          "internalType": "uint256",
          "name": "b",
          "type": "uint256"
        }
      ],
      "name": "safeSub",
      "outputs": [
        {
          "internalType": "uint256",
          "name": "c",
          "type": "uint256"
        }
      ],
      "stateMutability": "pure",
      "type": "function"
    }
  ],
  "bytecode": "0x608060405234801561001057600080fd5b506103f6806100206000396000f3fe608060405234801561001057600080fd5b506004361061004c5760003560e01c8063a293d1e814610051578063b5931f7c14610081578063d05c78da146100b1578063e6cb9013146100e1575b600080fd5b61006b600480360381019061006691906101c6565b610111565b6040516100789190610211565b60405180910390f35b61009b600480360381019061009691906101c6565b610134565b6040516100a89190610211565b60405180910390f35b6100cb60048036038101906100c691906101c6565b610156565b6040516100d89190610211565b60405180910390f35b6100fb60048036038101906100f691906101c6565b61018e565b6040516101089190610211565b60405180910390f35b60008282111561012057600080fd5b818361012c919061030d565b905092915050565b600080821161014257600080fd5b818361014e9190610282565b905092915050565b6000818361016491906102b3565b9050600083148061017f575081838261017d9190610282565b145b61018857600080fd5b92915050565b6000818361019c919061022c565b9050828110156101ab57600080fd5b92915050565b6000813590506101c0816103a9565b92915050565b600080604083850312156101d957600080fd5b60006101e7858286016101b1565b92505060206101f8858286016101b1565b9150509250929050565b61020b81610341565b82525050565b60006020820190506102266000830184610202565b92915050565b600061023782610341565b915061024283610341565b9250827fffffffffffffffffffffffffffffffffffffffffffffffffffffffffffffffff038211156102775761027661034b565b5b828201905092915050565b600061028d82610341565b915061029883610341565b9250826102a8576102a761037a565b5b828204905092915050565b60006102be82610341565b91506102c983610341565b9250817fffffffffffffffffffffffffffffffffffffffffffffffffffffffffffffffff04831182151516156103025761030161034b565b5b828202905092915050565b600061031882610341565b915061032383610341565b9250828210156103365761033561034b565b5b828203905092915050565b6000819050919050565b7f4e487b7100000000000000000000000000000000000000000000000000000000600052601160045260246000fd5b7f4e487b7100000000000000000000000000000000000000000000000000000000600052601260045260246000fd5b6103b281610341565b81146103bd57600080fd5b5056fea26469706673582212202b74193a51c683edf6eb8712fbc16e6825113e69fd603e8ef33dac71568a771164736f6c63430008030033",
  "linkReferences": {},
  "deployedLinkReferences": {}
}